:100000000C94BB260C94FB260C94FB260C94FB262C
:100010000C94FB260C94FB260C94FB260C94FB26DC
:100020000C94FB260C94FB260C94FB260C94FB26CC
:100030000C94FB260C94FB260C94FB260C94FB26BC
:100040000C94FB260C94F3920C94FB260C94FB2648
:100050000C94FB260C94FB260C94F1910D94A901B1
:100060000C94FB260C94D2550C94C8550C94FB268A
:100070000C94FB260C94FB260C94FB260C94FB267C
:100080000C94233E0C94FB260C94FB260C94FB262C
:100090000C94FB260C94FB260C94FB260C94FB265C
:1000A0000C94FB260C94FB260C94F53D0C94FB263B
:1000B0000C94FB260C94FB260C94FB260C94FB263C
:1000C0000C94FB260C94FB260C94FB260C94EC3E23
:1000D0000C94B63E0C94FB260C94FB260C94FB2649
:1000E0000C94FB26084AD73B3BCE016E84BCBFFD77
:1000F000C12F3D6C74319ABD56833DDA3D00C77FF8
:1001000011BED9E4BB4C3E916BAAAABE0000008090
:100110003F05A84CCDB2D44EB93836A9020C50B91F
:10012000918688083CA6AAAA2ABE000000803F0744
:10013000634236B79BD8A71A39685618AEBAAB5582
:100140008C1D3CB7CC5763BD6DEDFD753EF6177247
:1001500031BF000000803F08000000BE9224491219
:100160003EABAAAA2ABECDCCCC4C3E00000080BE3D
:10017000ABAAAAAA3E00000000BF000000803F001A
:1001800000000000084178D3BB4387D1133D190E0E
:100190003CC3BD4282AD2B3E68EC8276BED98FE176
:1001A000A93E4C80EFFFBE01C4FF7F3F000000006E
:1001B00000000D94EB000D94CB000D94A1000D9464
:1001C000A6150D9418000D9491000D9400000D9447
:1001D000821D4E414E494E495459494E46CDCCCCD4
:1001E0003D0AD7233C17B7D13877CC2B329595E60B
:1001F000241FB14F0A000020410000C84200401CEB
:100200004620BCBE4CCA1B0E5AAEC59D7400407A37
:1002100010F35A00A0724E18090010A5D4E800008F
:10022000E87648170000E40B54020000CA9A3B002D
:100230000000E1F505000080969800000040420FA4
:10024000000000A08601000000102700000000E868
:1002500003000000006400000000000A000000002D
:10026000000100000000002C76D888DC674F0823CE
:10027000DFC1DFAE59E1B1B796E5E3E453C63AE634
:1002800051997696E8E6C28426EB898C9B62ED4014
:100290007C6FFCEFBC9C9F40F2BAA56FA5F4900563
:1002A0005A2AF75C936B6CF9676DC11BFCE0E40D97
:1002B00047FEF520E6B500D0ED902E03009435778B
:1002C000050080841E080000204E0A000000C80CB3
:1002D000333333330F986E12831141EF8D2114891C
:1002E0003BE65516CFFEE6DB18D1844B381BF77C76
:1002F0001D901DA4BBE424203284725E228100C9BB
:10030000F124ECA1E53D270903363726033C3D38AF
:100310000E2E303E121A1C180A43090844000170C0
:10032000012C0190012701B0012201C0011D01F043
:100330000118011002130130020E01600209019040
:10034000020401C002FF000003FA004003F5008030
:1003500003F000D003EB002004E6007004E100E0AD
:1003600004DC004005D700C005D2004006CD00D017
:1003700006C8008007C3003008BE00F008B900C0FE
:1003800009B400B00AAF00B00BAA00D00CA5000061
:100390000EA000500F9B00C010960050129100005C
:1003A000148C00C0158700B0178200B0197D00D0F2
:1003B0001B7800001E730040206E0090226900F040
:1003C00024640040275F0090295A00E02B5500105C
:1003D0002E500020304B0010324600E03341009098
:1003E000353C001037370070383200A0392D00B08E
:1003F0003A2800A03B2300603C1E00103D190090ED
:100400003D1400103E0F00703E0A00C03E05000083
:100410003F0000403FFBFF803FF6FFC03FF1FF245D
:10042000F404D9201BC40C5C0E9804C4095F026557
:10043000077101F405F900FB04B30048048700C10B
:100440000369005803550003034500BE023A0084C7
:1004500002310053022A002902250004022000E490
:10046000011C00C8011900AF011700980114008495
:10047000011300710110006101100051010E0043D1
:10048000010D0036010B002B010B0020010B0015A4
:100490000109000C01090003010800FB000800F33A
:1004A000000800EB000700E4000600DE000600D8AC
:1004B000000600D2000600CC000500C7000500C2FF
:1004C000000500BD000400B9000400B5000400B13F
:1004D000000400AD000400A9000400A5000300A270
:1004E0000003009F0004009B000300980003009598
:1004F00000020093000300900003008D0002008BB7
:1005000000030088000200860002008400030081CE
:100510000002007F0002007D0002007B00020079E3
:1005200000020077000100760002007400020072F1
:10053000000100710002006F0002006D0001006CFC
:100540000002006A00010069000200670001006605
:10055000000100650001006400020062000100610A
:10056000000100600001005F0002005D0001005C0E
:100570000001005B0001005A000100590001005811
:100580000001005700010056000100550001005411
:10059000000100530000005300010052000100510F
:1005A000000100500001004F0001004E0000004E0D
:1005B0000001004D0001004C0001004B0000004B09
:1005C0000001004A00010049000100480000004805
:1005D0000001004700010046000000460001004500
:1005E00000000045000100440001004300000043FA
:1005F00000010042000000420001004100000041F3
:10060000000100400001003F0000003F0001003EEB
:100610000000003E0001003D0000003D0001003CE4
:100620000000003C0000003C0001003B0000003BDB
:100630000001003A0000003A0001003900000039D2
:1006400000010038000000380000003800010037C9
:1006500000000037000100360000003600000036C0
:1006600000010035000000350000003500010034B5
:1006700000000034000000340001003300000033AB
:1006800000000033000100320000003200000032A0
:100690000001003100000031000000310001003095
:1006A00000000030000000300001002F0000002F8B
:1006B0000000002F0000002F0001002E0000002E7F
:1006C0000000002E0001002D0000002D0000002D74
:1006D0000000002D0001002C0000002C0000002C68
:1006E0000000002C0001002B0000002B0000002B5C
:1006F0000000002B0001002A0000002A0000002A50
:100700000000002A00010029000000290000002943
:100710000000002900000029000100280000002836
:100720000000002800000028000000280001002729
:10073000000000270000002700000027000000271D
:100740000001002600000026000000260000002610
:100750000000002600010025000000250000002503
:1007600000000025000000250000002500010024F5
:1007700000000024000000240000002400000024E9
:1007800000010023000000230000002300000023DC
:1007900000000023000000230000002300010022CD
:1007A00000000022000000220000002200000022C1
:1007B00000000022000100210000002100000021B3
:1007C00000000021000000210000002100000021A5
:1007D0000001002000000020000000200000002098
:1007E0000000002000000020000000200000002089
:1007F0000001001F0000001F0000001F0000001F7C
:100800000000001F0000001F0000001F0001001E6C
:100810000000001E0000001E0000001E000000245A
:10082000F4D43050C38E20C2A24017828B701112B4
:100830007A910D816CD90AA861E108C758660761F1
:100840005143061E4B5D05C145A7041A4111040919
:100850003D9803713931034036DB0265339102D490
:10086000305402802E1D02632CEE01752AC501B0A2
:1008700028A001102781018F2564012B244B01E062
:10088000223401AC211F018D200D01801FFC00844A
:100890001EED00971DDF00B81CD200E61BC600202D
:1008A0001BBC00641AB200B219A8000A19A0006AA1
:1008B000189900D117910040178B00B516840031AC
:1008C000167E00B31579003A157300C7146F0058EF
:1008D000146A00EE1366008813630025135E00C7D8
:1008E000125B006C12570015125400C111510070B8
:1008F000114F0021114B00D61049008D10470046C2
:1009000010440002104200C00F4000800F3E004221
:100910000F3C00060F3B00CB0E3800930E37005CF7
:100920000E3500270E3400F30D3200C10D3100905A
:100930000D3000600D2E00320D2D00050D2C00D95C
:100940000C2B00AE0C2900850C29005C0C2700350F
:100950000C27000E0C2600E80B2400C40B2400A07A
:100960000B23007D0B23005A0B2100390B210018AB
:100970000B2000F80A1F00D90A1E00BB0A1E009DAA
:100980000A1D00800A1D00630A1C00470A1B002C78
:100990000A1B00110A1A00F7091A00DD091900C420
:1009A000091900AB091900920917007B09180063A7
:1009B0000917004C09160036091600200916000A0E
:1009C000091500F5081500E0081400CC081400B85B
:1009D000081400A4081400900813007D0812006B8E
:1009E00008130058081200460812003408110023AA
:1009F0000811001208110001081100F0071000E0B2
:100A0000071000D0071000C0071000B0070F00A1AA
:100A100007100091070E0083070F0074070F006591
:100A2000070E0057070E0049070E003B070D002E6A
:100A3000070E0020070D0013070D0006070D00F933
:100A4000060C00ED060D00E0060C00D4060C00C8F4
:100A5000060C00BC060C00B0060C00A4060B0099A6
:100A6000060C008D060B0082060B0077060B006C4F
:100A7000060B0061060A0057060B004C060A0042EE
:100A8000060A0038060A002E060A0024060A001A82
:100A9000060A001006090007060A00FD050900F411
:100AA000050900EB050900E2050900D9050900D098
:100AB000050900C7050900BE050900B5050800AD18
:100AC000050800A50509009C050800940508008C90
:100AD000050800840508007C050800740508006C02
:100AE000050700650508005D050700560508004E6E
:100AF00005070047050700400508003805070031D5
:100B00000507002A050700230507001C0506001637
:100B10000507000F0507000805060002050700FB92
:100B2000040600F5040700EE040600E8040600E2EF
:100B3000040700DB040600D5040600CF040600C944
:100B4000040600C3040600BD040600B7040600B195
:100B5000040500AC040600A6040600A00405009BE2
:100B600004060095040500900406008A040500852B
:100B7000040500800406007A040500750405007071
:100B80000405006B04050066040500610405005CB3
:100B900004050057040500520405004D04050048F3
:100BA000040500430405003E0404003A0405003532
:100BB000040500300404002C04050027040400236D
:100BC0000405001E0404001A0404001604050011A4
:100BD0000404000D040400090405000404040000DA
:100BE000040400FC030400F8030400F4030400F010
:100BF000030400EC030400E8030400E4030400E041
:100C0000030400DC030400D8030400D4030400D070
:100C1000030400CC030400C8030300C503030072EF
:100C20006F746174696F6E206D61747269783A0ACD
:100C30000024F404D9201BC40C5C0E9804C4095F82
:100C40000265077101F405F900FB04B3004804874D
:100C500000C10369005803550003034500BE023A72
:100C6000008402310053022A0029022500040220D8
:100C700000E4011C00C8011900AF0117009801141D
:100C80000084011300710110006101100051010E78
:100C90000043010D0036010B002B010B0020010B5E
:100CA00000150109000C01090003010800FB000800
:100CB00000F3000800EB000700E4000600DE000679
:100CC00000D8000600D2000600CC000500C70005D1
:100CD00000C2000500BD000400B9000400B5000416
:100CE00000B1000400AD000400A9000400A5000349
:100CF00000A20003009F0004009B00030098000373
:100D0000009500020093000300900003008D000294
:100D1000008B0003008800020086000200840003AC
:100D200000810002007F0002007D0002007B0002C3
:100D300000790002007700010076000200740002D2
:100D40000072000100710002006F0002006D0001DE
:100D5000006C0002006A00010069000200670001E7
:100D600000660001006500010064000200620001ED
:100D70000061000100600001005F0002005D0001F1
:100D8000005C0001005B0001005A000100590001F5
:100D900000580001005700010056000100550001F5
:100DA00000540001005300000053000100520001F4
:100DB0000051000100500001004F0001004E0000F2
:100DC000004E0001004D0001004C0001004B0000EE
:100DD000004B0001004A00010049000100480000EA
:100DE00000480001004700010046000000460001E5
:100DF00000450000004500010044000100430000E0
:100E000000430001004200000042000100410000D8
:100E10000041000100400001003F0000003F0001D0
:100E2000003E0000003E0001003D0000003D0001CA
:100E3000003C0000003C0000003C0001003B0000C2
:100E4000003B0001003A0000003A000100390000B8
:100E500000390001003800000038000000380001AF
:100E600000370000003700010036000000360000A7
:100E7000003600010035000000350000003500019B
:100E80000034000000340000003400010033000092
:100E90000033000000330001003200000032000087
:100EA000003200010031000000310000003100017B
:100EB000003000000030000000300001002F000072
:100EC000002F0000002F0000002F0001002E000066
:100ED000002E0000002E0001002D0000002D00005B
:100EE000002D0000002D0001002C0000002C00004F
:100EF000002C0000002C0001002B0000002B000043
:100F0000002B0000002B0001002A0000002A000036
:100F1000002A0000002A000100290000002900002A
:100F2000002900000029000000290001002800001D
:100F30000028000000280000002800000028000110
:100F40000027000000270000002700000027000005
:100F500000270001002600000026000000260000F7
:100F600000260000002600010025000000250000EA
:100F700000250000002500000025000000250001DC
:100F800000240000002400000024000000240000D1
:100F900000240001002300000023000000230000C3
:100FA00000230000002300000023000000230001B4
:100FB00000220000002200000022000000220000A9
:100FC000002200000022000100210000002100009A
:100FD000002100000021000000210000002100008D
:100FE000002100010020000000200000002000007F
:100FF0000020000000200000002000000020000071
:1010000000200001001F0000001F0000001F000062
:10101000001F0000001F0000001F0000001F000153
:10102000001E0000001E0000001E0000001E000048
:101030000024F4D43050C38E20C2A24017828B709B
:1010400011127A910D816CD90AA861E108C758661E
:1010500007615143061E4B5D05C145A7041A4111A6
:1010600004093D9803713931034036DB0265339141
:1010700002D4305402802E1D02632CEE01752AC565
:1010800001B028A001102781018F2564012B244B7A
:1010900001E0223401AC211F018D200D01801FFCD5
:1010A00000841EED00971DDF00B81CD200E61BC6B1
:1010B00000201BBC00641AB200B219A8000A19A0D3
:1010C000006A189900D117910040178B00B516845B
:1010D0000031167E00B31579003A157300C7146FFE
:1010E0000058146A00EE1366008813630025135E2F
:1010F00000C7125B006C12570015125400C1115149
:101100000070114F0021114B00D61049008D10477F
:10111000004610440002104200C00F4000800F3E05
:1011200000420F3C00060F3B00CB0E3800930E37F9
:10113000005C0E3500270E3400F30D3200C10D3176
:1011400000900D3000600D2E00320D2D00050D2C8D
:1011500000D90C2B00AE0C2900850C29005C0C2753
:1011600000350C27000E0C2600E80B2400C40B24CD
:1011700000A00B23007D0B23005A0B2100390B210B
:1011800000180B2000F80A1F00D90A1E00BB0A1E17
:10119000009D0A1D00800A1D00630A1C00470A1BEF
:1011A000002C0A1B00110A1A00F7091A00DD0919A0
:1011B00000C4091900AB091900920917007B09182E
:1011C00000630917004C091600360916002009169D
:1011D000000A091500F5081500E0081400CC0814F1
:1011E00000B8081400A4081400900813007D081229
:1011F000006B08130058081200460812003408114A
:1012000000230811001208110001081100F0071056
:1012100000E0071000D0071000C0071000B0070F53
:1012200000A107100091070E0083070F0074070F3D
:101230000065070E0057070E0049070E003B070D1B
:10124000002E070E0020070D0013070D0006070DE6
:1012500000F9060C00ED060D00E0060C00D4060CAB
:1012600000C8060C00BC060C00B0060C00A4060B5F
:101270000099060C008D060B0082060B0077060B0A
:10128000006C060B0061060A0057060B004C060AAC
:101290000042060A0038060A002E060A0024060A42
:1012A000001A060A001006090007060A00FD0509D3
:1012B00000F4050900EB050900E2050900D905095C
:1012C00000D0050900C7050900BE050900B50508DD
:1012D00000AD050800A50509009C05080094050857
:1012E000008C050800840508007C050800740508CA
:1012F000006C050700650508005D05070056050838
:10130000004E05070047050700400508003805079F
:1013100000310507002A050700230507001C050604
:1013200000160507000F050700080506000205075F
:1013300000FB040600F5040700EE040600E80406BE
:1013400000E2040700DB040600D5040600CF040613
:1013500000C9040600C3040600BD040600B7040665
:1013600000B1040500AC040600A6040600A00405B4
:10137000009B04060095040500900406008A0405FD
:101380000085040500800406007A04050075040544
:1013900000700405006B0405006604050061040587
:1013A000005C04050057040500520405004D0405C7
:1013B0000048040500430405003E0404003A040507
:1013C0000035040500300404002C04050027040443
:1013D00000230405001E0404001A0404001604057A
:1013E00000110404000D04040009040500040404B1
:1013F0000000040400FC030400F8030400F40304E8
:1014000000F0030400EC030400E8030400E4030418
:1014100000E0030400DC030400D8030400D4030448
:1014200000D0030400CC030400C8030300C5030379
:10143000005A5F6D6F76655F636F6D700A00616C57
:10144000736F20656E61626C6564290A00206E6F9F
:10145000742064697361626C65642E2053686172E4
:1014600065642077697468002E0A0024F404D9208A
:101470001BC40C5C0E9804C4095F0265077101F47B
:1014800005F900FB04B30048048700C10369005854
:1014900003550003034500BE023A008402310053A5
:1014A000022A002902250004022000E4011C00C8D1
:1014B000011900AF01170098011400840113007195
:1014C0000110006101100051010E0043010D0036B2
:1014D000010B002B010B0020010B00150109000C72
:1014E00001090003010800FB000800F3000800EBFD
:1014F000000700E4000600DE000600D8000600D267
:10150000000600CC000500C7000500C2000500BDB4
:10151000000400B9000400B5000400B1000400ADEF
:10152000000400A9000400A5000300A20003009F1E
:101530000004009B00030098000300950002009344
:10154000000300900003008D0002008B0003008860
:101550000002008600020084000300810002007F78
:101560000002007D0002007B00020079000200778B
:101570000001007600020074000200720001007198
:101580000002006F0002006D0001006C0002006AA2
:1015900000010069000200670001006600010065AB
:1015A00000010064000200620001006100010060AF
:1015B0000001005F0002005D0001005C0001005BB3
:1015C0000001005A000100590001005800010057B5
:1015D00000010056000100550001005400010053B5
:1015E00000000053000100520001005100010050B2
:1015F0000001004F0001004E0000004E0001004DB0
:101600000001004C0001004B0000004B0001004AAB
:1016100000010049000100480000004800010047A7
:1016200000010046000000460001004500000045A2
:10163000000100440001004300000043000100429B
:101640000000004200010041000000410001004094
:101650000001003F0000003F0001003E0000003E8E
:101660000001003D0000003D0001003C0000003C86
:101670000000003C0001003B0000003B0001003A7C
:101680000000003A00010039000000390001003874
:10169000000000380000003800010037000000376B
:1016A0000001003600000036000000360001003561
:1016B0000000003500000035000100340000003457
:1016C000000000340001003300000033000000334C
:1016D0000001003200000032000000320001003141
:1016E0000000003100000031000100300000003037
:1016F000000000300001002F0000002F0000002F2C
:101700000000002F0001002E0000002E0000002E1F
:101710000001002D0000002D0000002D0000002D14
:101720000001002C0000002C0000002C0000002C08
:101730000001002B0000002B0000002B0000002BFC
:101740000001002A0000002A0000002A0000002AF0
:1017500000010029000000290000002900000029E4
:1017600000000029000100280000002800000028D7
:1017700000000028000000280001002700000027CA
:1017800000000027000000270000002700010026BD
:1017900000000026000000260000002600000026B1
:1017A00000010025000000250000002500000025A4
:1017B0000000002500000025000100240000002496
:1017C0000000002400000024000000240001002389
:1017D000000000230000002300000023000000237D
:1017E000000000230000002300010022000000226E
:1017F0000000002200000022000000220000002261
:101800000001002100000021000000210000002153
:101810000000002100000021000000210001002044
:101820000000002000000020000000200000002038
:101830000000002000000020000000200001001F28
:101840000000001F0000001F0000001F0000001F1C
:101850000000001F0000001F0001001E0000001E0D
:101860000000001E0000001E00000024F4D43050D0
:10187000C38E20C2A24017828B7011127A910D8103
:101880006CD90AA861E108C7586607615143061E72
:101890004B5D05C145A7041A411104093D98037128
:1018A0003931034036DB0265339102D43054028073
:1018B0002E1D02632CEE01752AC501B028A001106F
:1018C0002781018F2564012B244B01E0223401ACD8
:1018D000211F018D200D01801FFC00841EED00974B
:1018E0001DDF00B81CD200E61BC600201BBC006434
:1018F0001AB200B219A8000A19A0006A189900D1FA
:1019000017910040178B00B516840031167E00B386
:101910001579003A157300C7146F0058146A00EE69
:101920001366008813630025135E00C7125B006C0A
:1019300012570015125400C111510070114F0021AF
:10194000114B00D61049008D10470046104400028C
:10195000104200C00F4000800F3E00420F3C0006C6
:101960000F3B00CB0E3800930E37005C0E3500277E
:101970000E3400F30D3200C10D3100900D300060C7
:101980000D2E00320D2D00050D2C00D90C2B00AEB4
:101990000C2900850C29005C0C2700350C27000E53
:1019A0000C2600E80B2400C40B2400A00B23007DB0
:1019B0000B23005A0B2100390B2100180B2000F8D3
:1019C0000A1F00D90A1E00BB0A1E009D0A1D0080C6
:1019D0000A1D00630A1C00470A1B002C0A1B001189
:1019E0000A1A00F7091A00DD091900C4091900AB29
:1019F000091900920917007B091800630917004CA8
:101A000009160036091600200916000A091500F506
:101A1000081500E0081400CC081400B8081400A44D
:101A2000081400900813007D0812006B081300587A
:101A30000812004608120034081100230811001291
:101A400008110001081100F0071000E0071000D095
:101A5000071000C0071000B0070F00A10710009189
:101A6000070E0083070F0074070F0065070E00576D
:101A7000070E0049070E003B070D002E070E002041
:101A8000070D0013070D0006070D00F9060C00ED09
:101A9000060D00E0060C00D4060C00C8060C00BCC5
:101AA000060C00B0060C00A4060B0099060C008D75
:101AB000060B0082060B0077060B006C060B00611C
:101AC000060A0057060B004C060A0042060A0038B8
:101AD000060A002E060A0024060A001A060A00104A
:101AE00006090007060A00FD050900F4050900EBD8
:101AF000050900E2050900D9050900D0050900C75C
:101B0000050900BE050900B5050800AD050800A5DA
:101B10000509009C050800940508008C0508008450
:101B20000508007C050800740508006C05070065C1
:101B30000508005D050700560508004E050700472B
:101B40000507004005080038050700310507002A91
:101B5000050700230507001C050600160507000FF2
:101B60000507000805060002050700FB040600F54E
:101B7000040700EE040600E8040600E2040700DBA8
:101B8000040600D5040600CF040600C9040600C3FD
:101B9000040600BD040600B7040600B1040500AC4D
:101BA000040600A6040600A00405009B0406009598
:101BB000040500900406008A0405008504050080E1
:101BC0000406007A04050075040500700405006B26
:101BD00004050066040500610405005C0405005767
:101BE000040500520405004D0405004804050043A7
:101BF0000405003E0404003A0405003504050030E5
:101C00000404002C04050027040400230405001E1E
:101C10000404001A04040016040500110404000D55
:101C2000040400090405000404040000040400FC8A
:101C3000030400F8030400F4030400F0030400ECC0
:101C4000030400E8030400E4030400E0030400DCF0
:101C5000030400D8030400D4030400D0030400CC20
:101C6000030400C8030300C50303004D61726C69DF
:101C70006E20322E302E392E3300417869732000C9
:101C8000206D696E3A00206D61783A0041636365AA
:101C90006C65726174696F6E206C696D69746564DE
:101CA0002E0A004641535400534C4F570006000083
:101CB00007010005000701000706000000070005F6
:101CC00000434F4D4D554E49434154494F4E0044FA
:101CD000525952554E004552524F525300494E46AA
:101CE0004F004543484F004572726F72207772690A
:101CF00074696E6720746F20454550524F4D210A1C
:101D0000004D4547C3814C4C542120005072696EF0
:101D10007465722073746F707065642064756520DB
:101D2000746F206572726F72732E2046697820740A
:101D30006865206572726F7220616E6420757365CC
:101D4000204D39393920746F207265737461727453
:101D50002E202854656D70657261747572652069F6
:101D6000732072657365742E205365742069742026
:101D700061667465722072657374617274696E67EE
:101D8000290A004E6F20436865636B73756D207779
:101D9000697468206C696E65206E756D6265722C61
:101DA000204C617374204C696E653A20004E6F20A0
:101DB000436865636B73756D2077697468206C691F
:101DC0006E65206E756D6265722C204C6173742097
:101DD0004C696E653A2000636865636B73756D20AE
:101DE0006D69736D617463682C204C617374204C51
:101DF000696E653A20004C696E65204E756D6265AE
:101E000072206973206E6F74204C617374204C696A
:101E10006E65204E756D6265722B312C204C61739E
:101E200074204C696E653A20004D313130005365A5
:101E30007269616C20737461747573206D69736D60
:101E4000617463680A00534420726561642065729E
:101E5000726F720A002121204B494C4C206361753E
:101E600073656420627920746F6F206D75636820DC
:101E7000696E6163746976652074696D65202D20D3
:101E800063757272656E7420636F6D6D616E643A16
:101E9000200046656A20C3BC7265736AC3A1726183
:101EA0007469206964C3B66B2E00486F74656E64F4
:101EB0002049646C652054696D656F75740A007003
:101EC00061757365004D363030002066696C616D58
:101ED000656E745F72756E6F7574200066696C61F3
:101EE0006D656E745F72756E6F757420540046690F
:101EF0006C616D656E7452756E6F7574205400530D
:101F0000442063617264206572726F72004E4F5498
:101F100049434500627573793A2070617573656451
:101F200020666F7220696E7075740A00627573792D
:101F30003A2070617573656420666F7220757365F1
:101F4000720A00627573793A2070726F63657373F9
:101F5000696E670A00496E64C3AD74736420C3BAC6
:101F60006A7261210041204E594F4D544154C39330
:101F7000204C45C3814C4C5400706F7765726F667E
:101F8000660048414C4F54542120005072696E74D1
:101F900065722068616C7465642E206B696C6C28B6
:101FA000292063616C6C6564210A004D4547C3813B
:101FB0004C4C542120005072696E74657220737409
:101FC0006F707065642064756520746F206572722F
:101FD0006F72732E2046697820746865206572726E
:101FE0006F7220616E6420757365204D3939392018
:101FF000746F20726573746172742E202854656D3D
:10200000706572617475726520697320726573659D
:10201000742E205365742069742061667465722083
:1020200072657374617274696E67290A006563680A
:102030006F3A004572726F723A00204A0020204DBC
:10204000343231204900202047323920493939398A
:102050000A00556E696669656420426564204C65B6
:1020600076656C696E67006163746976650A0069FC
:102070006E00002053797374656D2076312E3031F7
:1020800020002020207C0A004E414E0020202E20DF
:10209000202000207C0020666F7220004C43443AD0
:1020A0000A004353563A0A003A0A0A000A42656493
:1020B00020546F706F677261706879205265706F1D
:1020C00072740050726F62696E67204661696C6558
:1020D000640A00537A6F6E64C3A17AC3A173206847
:1020E00069626100205A3A200020593A2000426576
:1020F0006420583A20004732384C300047323800CC
:10210000446F6E652E0A003F496E76616C696420EB
:1021100073746F7261676520736C6F742E0A3F551C
:102120007365203020746F20003F454550524F4D5D
:102130002073746F72616765206E6F7420617661C1
:10214000696C61626C652E0A00446F6E652E0A0030
:102150003F496E76616C69642073746F7261676564
:1021600020736C6F742E0A3F557365203020746F96
:1021700020003F454550524F4D2073746F72616788
:1021800065206E6F7420617661696C61626C652E8A
:102190000A003F5034206973206F6E6C792061769D
:1021A00061696C61626C65207768656E20616E2084
:1021B0004C43442069732070726573656E742E0AF7
:1021C000003F5032206973206F6E6C792061766118
:1021D000696C61626C65207768656E20616E204C69
:1021E00043442069732070726573656E742E0A0013
:1021F000292E0A0A0050726F62696E672061726F41
:10220000756E642028004D65736820696E76616C78
:102210006964617465642E2050726F62696E672014
:102220006D6573682E0A004D657368207A65726F5C
:1022300065642E0A0044656661756C742073746F62
:102240007261676520736C6F7420302073656C65F4
:10225000637465642E0A004170706C79696E672042
:1022600074657374207061747465726E2E0A0A004E
:102270003F496E76616C696420285129207465732A
:1022800074207061747465726E2E20283020746F13
:102290002032290A0A0020696E76616C69646174D3
:1022A00065642E0A0A004C6F636174696F6E730077
:1022B000456E74697265204D657368005374616E74
:1022C0006461726420446576696174696F6E3A2056
:1022D000004D65616E204D657368204865696768CB
:1022E000743A200023206F662073616D706C6573F3
:1022F0003A20005072C3B36261706F6E7400255350
:102300002025692F2569002E0A002F0050726F6268
:10231000696E67206D65736820706F696E74200048
:10232000496E76616C6964206D61702074797065A6
:102330002E0A0A003F28462961646520686569679E
:10234000687420666F7220426564204C6576656C07
:1023500020436F7272656374696F6E206E6F7420B4
:10236000706C61757369626C652E0A0A003F436187
:102370006E277420616374697661746520616E6490
:10238000206465616374697661746520617420748A
:1023900068652073616D652074696D652E0A0A0099
:1023A000426F7468205820262059206C6F63617436
:1023B000696F6E73206D757374206265207370652C
:1023C0006369666965642E0A0A003F496E76616C2E
:1023D000696420677269642073697A6520284A29D4
:1023E000207370656369666965642028322D392918
:1023F0002E0A0A003F285029686173652076616CB7
:10240000756520696E76616C69642028302D3629E7
:102410002E0A0A003F2856296572626F7365206C88
:102420006576656C20696D706C61757369626C6549
:102430002028302D34292E0A0A003F2852296570A1
:1024400065746974696F6E20636F756E7420696E50
:1024500076616C69642028312B292E0A0A00BC1C85
:10246000B71CB21CAD1C5D0A0062656420706C6113
:102470006E65206E6F726D616C203D205B00436F56
:10248000756C64206E6F7420636F6D706C6574651D
:10249000204C53462100436F727265637465645F1C
:1024A0005A3D0025532025692F2569000A0A002F6F
:1024B0000054696C74696E67206D65736820706F75
:1024C000696E7420003F4572726F722070726F6285
:1024D000696E6720706F696E742E2041626F72742E
:1024E000696E67206F7065726174696F6E2E0A0085
:1024F000436F727265637465645F5A3D00255320B3
:10250000332F330054696C74696E67206D6573688E
:102510002028332F33290A00436F72726563746574
:10252000645F5A3D00255320322F330054696C7488
:10253000696E67206D6573682028322F33290A0081
:10254000436F727265637465645F5A3D0044C3B63D
:102550006E74C3A9736920706F6E740025532031A7
:102560002F330054696C74696E67206D6573682041
:1025700028312F33290A00646F6E650A00496E7393
:10258000756666696369656E7420646174610A00CA
:102590000000704156558F425655004300003943A4
:1025A000ABAA7143AB2A95430080B1430000704150
:1025B00056558B42ABAAF84200003343ABAA69439D
:1025C000AB2A90430080AB434578747261706F6CA6
:1025D0006174696E67206D6573682E2E2E0021214F
:1025E0002053544F502063616C6C656420626563B6
:1025F00061757365206F6620424C546F7563682067
:102600006572726F72202D2072657374617274200E
:1026100077697468204D3939390A002121205354D3
:102620004F502063616C6C656420626563617573F3
:1026300065206F6620424C546F7563682065727226
:102640006F72202D207265737461727420776974C3
:1026500068204D3939390A004F626A656B74756DAF
:10266000206E796F6D746174C3A17361002553206E
:1026700025690020460020570020204D32303720A9
:10268000530020460020570020204D323038205380
:102690000020204D3230392053002F2F61637469A0
:1026A0006F6E3A0070726F6D70745F006275747453
:1026B0006F6E00626567696E00486F74656E6420B6
:1026C000746F6F20636F6C640A0053656E64204DF5
:1026D00031303820746F20726573756D650A00495A
:1026E0006E736572742066696C616D656E742061CD
:1026F0006E642073656E64204D3130380A00526577
:102700006865617420446F6E6500C39A6A72616681
:10271000C3BC74C3A9732E2E2E00C39A6A7261665D
:10272000C3BC740046C3BC74C3A973206964C3B638
:102730006B6F726CC3A1746A610053656E64204D47
:1027400031303820746F2068656174206E6F7A7A3A
:102750006C650A0046656A207061726B6F6C766109
:1027600000706175736564005061757365004F4654
:10277000460A004661646520486569676874200000
:10278000426564204C6576656C696E672000466121
:10279000696C656420746F20656E61626C652042AF
:1027A0006564204C6576656C696E670A00496E76D3
:1027B000616C6964206D6573682E0A0076616C69CE
:1027C000640A53746F7261676520736C6F743A208A
:1027D00000696E004D65736820697320003F557372
:1027E00065203020746F20003F496E76616C69640B
:1027F0002073746F7261676520736C6F742E0A00AA
:102800003F454550524F4D2073746F72616765208C
:102810006E6F7420617661696C61626C652E0A006E
:10282000456C74C3A972C3A9730025533A2025735C
:102830000046696E6973686564210A003A207A3A35
:102840002000206F662000476F696E6720746F3A22
:1028500020580043570A00206469723A0020616ED4
:10286000676C653A005374617274207261646975B3
:10287000733A004D343820506F6E740025533A205F
:1028800025642F256400506F736974696F6E696EDB
:1028900067207468652070726F62652E2E2E0A00A4
:1028A0003F4C656773206F66206D6F76656D656E52
:1028B0007420696D706C61757369626C6520283075
:1028C0002D3135292E0A003F2028582C5929206FF8
:1028D0007574206F6620626F756E64732E0A0053E4
:1028E0007A6F6E646120686174C3A1726F6E206B31
:1028F000C3AD76C3BC6C003F53616D706C652073D3
:10290000697A65206E6F7420706C61757369626C92
:10291000652028342D3530292E0A004D3438205AB0
:102920002D50726F626520526570656174616269D5
:102930006C69747920546573740A003F28562965C0
:1029400072626F7365206C6576656C20696D706C62
:1029500061757369626C652028302D34292E0A0058
:102960005374616E64617264204465766961746950
:102970006F6E3A20002052616E67653A2000204D4C
:1029800061783A2000204D696E3A20002053696733
:102990006D613A20004D65616E3A200020440020B0
:1029A000204D323030205300202844697361626C1E
:1029B0006564293A0046696C616D656E74207365C3
:1029C0007474696E67730020204D323031205800D6
:1029D0004D617820416363656C65726174696F6EE7
:1029E0002028756E6974732F7332290020204D32B0
:1029F00030332058004D61782066656564726174DB
:102A000065732028756E6974732F73290020520036
:102A100020204D323034205000416363656C657274
:102A20006174696F6E2028756E6974732F73322913
:102A30002028503C7072696E742D616363656C3E32
:102A400020523C726574726163742D616363656CBE
:102A50003E20543C74726176656C2D616363656CD5
:102A60003E2900204A0020540020530020204D32EF
:102A70003035204200416476616E636564202842EF
:102A80003C6D696E5F7365676D656E745F74696DCB
:102A9000655F75733E20533C6D696E5F6665656466
:102AA000726174653E20543C6D696E5F747261762C
:102AB000656C5F66656564726174653E204A3C6A58
:102AC000756E635F6465763E2900204400204900EE
:102AD00020204D333031205000486F74656E6420E3
:102AE0005049440020440020490020204D33303418
:102AF00020500042656420504944002058002020A6
:102B00004D61783A2000200020204D696E3A200067
:102B1000203B200020204D323131205300203B004B
:102B200020550020204D363033204C0046696C6122
:102B30006D656E74206C6F61642F756E6C6F61646F
:102B4000003B200020496E76616C696420657874D2
:102B500072756465722000416C76C3A1732E2E2EAF
:102B6000005A2050726F6265205061737420426574
:102B7000640A005A20737A6F6E64612074C3A16C7A
:102B800063C3A16E206B6976C3BC6C00205A3A20E7
:102B90000020593A200042656420583A20004D65D3
:102BA000736820706F696E74206F7574206F662073
:102BB00072616E67650A004D302053746F70004D6E
:102BC000312053746F70004B617474206120666F04
:102BD0006C79746174C3A173686F7A2E2E2E004EC7
:102BE000696E6373206D6F7A67C3A1732E00456EA3
:102BF000642066696C65206C6973740A00426567BD
:102C0000696E2066696C65206C6973740A004E6F8A
:102C1000206D656469610A00526573756D696E6740
:102C200020534400286E6F2066696C652900437547
:102C30007272656E742066696C653A200053442098
:102C40007072696E74696E67206279746520004ED7
:102C50006F74205344207072696E74696E670A0045
:102C60002E0A0044656C6574696F6E206661696C3C
:102C700065642C2046696C653A200046696C6520C5
:102C800064656C657465643A005072696E74207492
:102C9000696D653A20006F6B006F666600E21CDDAF
:102CA0001CD61CCF1CC11C44454255473A004D312F
:102CB0003133205300456E6465722D3520506C759C
:102CC00073204F46462E002F2F003F4A206F757409
:102CD000206F662072616E67652028302E303120AB
:102CE000746F20302E33290A0046523A0020466C79
:102CF0006F773A20003A200020536572766F2000EB
:102D0000206F7574206F662072616E67650A0053CC
:102D10006572766F200064697300656E0043290A4E
:102D20000061626C656420286D696E2074656D7049
:102D30002000436F6C64206578747275646573203D
:102D400061726520004F4646004F4E00203B2048F0
:102D50006F73742068616E646C696E6720004669E9
:102D60006C616D656E742072756E6F757420004DA8
:102D700065736820706F696E74206F7574206F665C
:102D80002072616E67650A004D34323120696E63CE
:102D90006F727265637420706172616D65746572C3
:102DA0002075736167650A00456C746F6CC3A1730D
:102DB000206265C3A16C6CC3AD7476612E00457250
:102DC000723A20546F6F206661722100546F6F2039
:102DD0006661722066726F6D207265666572656EDF
:102DE000636520706F696E740A00454550524F4DFF
:102DF000204F4B0A002E0A002028302D31302900A8
:102E00002076616C7565206F7574206F6620726125
:102E10006E676500416476616E6365204B3D004DD1
:102E2000383458594500446F6E65207072696E746D
:102E3000696E672066696C650A004D3737004D334F
:102E40003100496E76616C696420657874727564CE
:102E500065720A00322E302E392E330000322032B5
:102E60004032603280320000043106310000903080
:102E7000923000000231003100002031000010319A
:102E800012311431000090300431063100006030FE
:102E90006230803082300031103112311431003113
:102EA0000231043100006030623080308230000036
:102EB00000000030000020204D32303620580048FD
:102EC0006F6D65206F666673657400446966663A67
:102ED0002020200046726F6D5374703A0053746561
:102EE000707065723A00556E4C6576656C3A004CB0
:102EF0006576656C65643A005261773A202020203F
:102F0000000A4C6F676963616C3A00436F756E74B9
:102F100020453A004361703A00434F4E4649475FAF
:102F20004558504F5254004D4541545041434B0079
:102F3000434F4F4C45525F54454D504552415455B7
:102F40005245004348414D4245525F54454D50451E
:102F500052415455524500424142595354455050F4
:102F6000494E470041524353004D4F54494F4E5F25
:102F70004D4F44455300544845524D414C5F5052CB
:102F80004F54454354494F4E00455854454E4445CF
:102F9000445F4D3230004C4F4E475F46494C454EE2
:102FA000414D45004155544F5245504F52545F5387
:102FB000445F5354415455530053445F575249544E
:102FC000450052455045415400534443415244004A
:102FD00050524F4D50545F535550504F525400482B
:102FE0004F53545F414354494F4E5F434F4D4D4102
:102FF0004E445300454D455247454E43595F50415D
:103000005253455200434153455F4C494748545F32
:103010004252494748544E45535300544F47474C3A
:10302000455F4C494748545300534F46545741520B
:10303000455F504F574552004255494C445F5045FB
:103040005243454E54004C4556454C494E475F440B
:10305000415441005A5F50524F42450052554E4F25
:103060005554004155544F4C4556454C005052491B
:103070004E545F4A4F420050524F475245535300FF
:103080004155544F5245504F52545F54454D500096
:103090004155544F5245504F52545F504F53005674
:1030A0004F4C554D455452494300454550524F4DA4
:1030B0000042494E4152595F46494C455F54524186
:1030C0004E534645520053455249414C5F584F4E6E
:1030D0005F584F4646004649524D574152455F4E54
:1030E000414D453A4D61726C696E20322E302E3959
:1030F0002E3320284D617920323520323032322073
:1031000030393A34373A35382920534F55524345F0
:103110005F434F44455F55524C3A67697468756226
:103120002E636F6D2F4D61726C696E4669726D779B
:103130006172652F4D61726C696E2050524F544F11
:10314000434F4C5F56455253494F4E3A312E302033
:103150004D414348494E455F545950453A456E6488
:1031600065722D3520506C75732045585452554466
:1031700045525F434F554E543A3120555549443AD4
:1031800038636432373665362D343163372D343445
:1031900033392D386634652D663138383533376527
:1031A000626461630A0047322F4733206261642002
:1031B000706172616D65746572730A00290A00207E
:1031C000746F20003F5A206F7574206F6620726103
:1031D0006E6765202800290A0020746F20003F597F
:1031E000206F7574206F662072616E676520282DD0
:1031F00000290A0020746F20003F58206F7574204A
:103200006F662072616E676520282D00203B0020CC
:10321000204D3835312058005A2D50726F6265208C
:103220004F666673657400220A00656E7175657578
:1032300065696E672022002569730025696D202568
:103240006973002569682025696D2025697300254B
:103250006964202569682025696D2025697300252A
:10326000697920256964202569682025696D2025F4
:1032700069730048C3BC74C3A9732E2E2E0046C3C5
:10328000BC74C3A9732E2E2E004531202553002077
:10329000573A00C38167792068C3BC74C3A9732EF1
:1032A0002E2E00C38167792066C3BC74C3A9732E18
:1032B0002E2E00504944204175746F74756E652040
:1032C0006661696C6564212042616420686561748F
:1032D00065722069640A0023646566696E6520442E
:1032E000454641554C545F005049442068616E6723
:1032F0006F6CC3A173206BC3A9737A0048616E67BA
:103300006F6CC3A17369206869626121204964C33D
:10331000B674C3BA6C6CC3A970C3A9732E0048619C
:103320006E676F6CC3A1736920686962612E204D5E
:10333000616761732068C3B66DC3A97273C3A96B5B
:103340006C65742E0048616E676F6CC3A173692051
:10335000686962612E20526F73737A2061646167BD
:103360006F6CC3B32E005049442068616E676F6C68
:10337000C3A1730000626564004B6420004B6920A8
:10338000004B702000504944204175746F74756E75
:10339000652066696E6973686564212050757420C4
:1033A000746865206C617374204B702C204B69200D
:1033B000616E64204B6420636F6E7374616E74730E
:1033C0002066726F6D2062656C6F7720696E746F16
:1033D00020436F6E66696775726174696F6E2E68DF
:1033E0000A00504944204175746F74756E652066FB
:1033F00061696C6564212074696D656F75740A007C
:10340000504944204175746F74756E65206661691A
:103410006C6564212054656D7065726174757265A8
:1034200020746F6F20686967680A00504944206300
:10343000696B6C75730025532025692F2569002061
:103440004B643A2000204B693A2000204B703A2010
:103450000020436C617373696320504944200A0063
:10346000204E6F206F76657273686F6F740A00204C
:1034700054753A2000204B753A2000206D61783A4F
:103480002000206D696E3A200020643A20002062FE
:103490006961733A20005761697420666F72206811
:1034A0006561742075702E2E2E00504944204175A0
:1034B000746F74756E652073746172740A0050497C
:1034C00044204175746F74756E65206661696C6522
:1034D00064212054656D7065726174757265207425
:1034E0006F6F20686967680A005049442068616E00
:1034F000676F6CC3A1730001200000029AB6000040
:103500000020000002C2B6000003200000022AB919
:1035100000001020000002E0B800000220000002BD
:10352000499200000021000002E1DE0000022100BB
:103530000002E1DE00000421000002E1DE000020C4
:1035400021000002E1DE0000302100000269DE00FF
:1035500000002400000246E400000030542E100059
:10356000003F8D20300000200000538E6030150C8D
:10357000020000CD8D6230190C028E94198F9030AC
:10358000000002178B198F2031FD0B0200009B8D6C
:103590001021000002808C00001022190C02AE8A5B
:1035A00000001033190C0200004E8F00371C0C0273
:1035B0004F8AF98D0237200C024F8AF98D04372487
:1035C0000C024F8AF98D102400000224DE000080D6
:1035D00030F609020000CD8D8230FA09028E94196E
:1035E0008F1C22FA0902AE8A00001C33FA0902007D
:1035F000004E8F1037FD09024F8AF98D1237010AEC
:10360000024F8AF98D1437050A024F8AF98D00316D
:10361000690C024F8BAA8F0022690C02CA8A000033
:103620000033690C020000618F02311A0202A08A85
:10363000198F10315F020200009B8D12316302026C
:1036400000009B8D143167020200009B8D04310045
:1036500000020000738F063100000A00000EC10056
:1036600036B01102C895FC8E0436B41102C895FC20
:103670008E0836B81102C895FC8E1036BC11029D1A
:1036800095FC8E2020000002C48C00002220000047
:10369000025AE40000242000000277B60000003245
:1036A00000002000005B8E203200002000005B8EB6
:1036B000403200002000005B8E60320000200000DD
:1036C0005B8E803200002000005B8E26200000020E
:1036D0001DBD0000282000000294BD000040200015
:1036E000000252B70000A0326B1502D58ADF8E00AF
:1036F0001100002000003F8D401100002000003F1D
:103700008D801100002000003F8DC01100002000BE
:10371000003F8D0000000002000000004D6567734F
:103720007A616BC3AD74C3A1732E2E2E004E696EE9
:1037300063732074C3A1726F6CC3B30063616E6363
:10374000656C004E796F6D746174C3A173206C65F4
:10375000C3A16C6CC3AD7476610055492041626FA2
:1037600072746564004D3137004D3138004D33308F
:103770003320452D3120433520533730205531003B
:103780004D333033204525642043352053323130CA
:103790002055310000B22E0AB02E14A62E1E8E2EF9
:1037A00020862E287E2E2A7A2E2C742E2E6E2E34D3
:1037B000682E325C2E000000506C656173652063DA
:1037C0006F6E6669726D2E0043616E6E6F74206558
:1037D0006E746572207375626469723A2000667255
:1037E0006F6D20534420436172643F005072696ED4
:1037F000742066696C6500726573756D65004D3285
:1038000034004D323520500A4D3234005265737504
:103810006D65005549205061757365003F00416238
:103820006F7274207072696E74696E6700257325FB
:103830006300473930004730204625640047302078
:103840002563257325642E253032642046256400C7
:10385000473931006E6F74696669636174696F6EB0
:10386000200054C3A16A6F6CC3A1736920686962A8
:1038700061006F70656E0054524947474552454498
:10388000003A200066696C616D656E74007A5F6D48
:10389000696E00795F6D617800785F6D61780052C4
:1038A00065706F7274696E6720656E6473746F7093
:1038B000207374617475730A0020453A00583A0009
:1038C00020746F6F206C6F6E6720657874727573EB
:1038D000696F6E2070726576656E7465640A00208B
:1038E000636F6C6420657874727573696F6E207095
:1038F000726576656E7465640A00456CC3B6737A4A
:10390000C3B67220257325732573206B656C6C001C
:103910000000B7430080B843000000005761726E9A
:10392000696E673A20486F6D696E672042756D70E9
:103930002044697669736F72203C20310A000202CC
:10394000040000B3430000B9430080CA430000A054
:10395000400000A040000080400000B7430080B855
:10396000430080CA4300000041000080BF00000007
:10397000004265C3A16C6CC3AD74C3A1736F6B20AF
:103980006D656E74766500290A002062797465732E
:103990003B20637263200053657474696E67732003
:1039A00053746F7265642028004D657368207361DD
:1039B00076656420696E20736C6F7420003F556ECD
:1039C00061626C6520746F2073617665206D65732C
:1039D0006820646174612E0A0020736C6F743D006E
:1039E000206D65736865735F656E643D00453245A3
:1039F0004E443D00206D65736820736C6F747320B6
:103A0000617661696C61626C652E0A003F496E7671
:103A1000616C696420736C6F742E0A004D65736865
:103A2000206C6F616465642066726F6D20736C6FCB
:103A30007420003F556E61626C6520746F206C6F5E
:103A40006164206D65736820646174612E0A0048AA
:103A5000617264636F6465642044656661756C744B
:103A60002053657474696E6773204C6F616465647C
:103A70000A0020286D6D2900203B204C6576656C7E
:103A8000696E67200020204D343230205300556E7F
:103A9000696669656420426564204C6576656C6979
:103AA0006E6700526574726163742028533C6C65C4
:103AB0006E6774683E20463C666565647261746535
:103AC0003E205A3C6C6966743E29005265636F76ED
:103AD00065722028533C6C656E6774683E20463CD6
:103AE00066656564726174653E29004175746F2D69
:103AF000526574726163742028533C656E61626C18
:103B0000653E290020204D393030204B004C696E35
:103B100065617220416476616E636500203B2053CD
:103B2000656E736F72200020204D343132205300B7
:103B300046696C616D656E742072756E6F75742068
:103B400073656E736F7200206D65736865732E0AFE
:103B50000A00454550524F4D2063616E20686F6CDE
:103B6000642000416374697665204D657368205355
:103B70006C6F74200020204D3134392043203B20CD
:103B8000556E69747320696E2043656C7369757333
:103B90000A0054656D706572617475726520556EAA
:103BA000697473002020473231203B004C696E65F8
:103BB000617220556E697473003F4D65736820749F
:103BC0006F6F2062696720666F7220454550524FC3
:103BD0004D2E0A00454550524F4D2064617461736B
:103BE000697A65206572726F722E0A004869626197
:103BF0003A20454550524F4D207665727A69C3B3DD
:103C000000486962613A20454550524F4D20696E27
:103C100064657800486962613A20454550524F4DCD
:103C2000204352430055424C2072657365740A006C
:103C3000206C6F616465642066726F6D2073746FB1
:103C4000726167652E0A004D6573682000290A00BD
:103C50002062797465733B20637263200020737463
:103C60006F7265642073657474696E677320726522
:103C700074726965766564202800202863616C632E
:103C8000756C6174656429210A0020213D2000457E
:103C90004550524F4D20435243206D69736D6174FE
:103CA0006368202D202873746F72656429200020BA
:103CB00053697A653A2000496E6465783A200000BD
:103CC00000FA450000FA450000704100606A4600B5
:103CD00000A0420000A042000048443D0ABA4288C9
:103CE000130000881300006400000010270000206B
:103CF0004D61726C696E3D563836290A0045455053
:103D0000524F4D2076657273696F6E206D69736DC9
:103D1000617463682028454550524F4D3D0024F49E
:103D2000D43050C38E20C2A24017828B7011127AF9
:103D3000910D816CD90AA861E108C75866076151E5
:103D400043061E4B5D05C145A7041A411104093DF8
:103D50009803713931034036DB0265339102D43068
:103D60005402802E1D02632CEE01752AC501B02875
:103D7000A001102781018F2564012B244B01E02233
:103D80003401AC211F018D200D01801FFC00841E19
:103D9000ED00971DDF00B81CD200E61BC600201BFB
:103DA000BC00641AB200B219A8000A19A0006A186F
:103DB0009900D117910040178B00B5168400311679
:103DC0007E00B31579003A157300C7146F005814BC
:103DD0006A00EE1366008813630025135E00C712A5
:103DE0005B006C12570015125400C1115100701184
:103DF0004F0021114B00D61049008D10470046108E
:103E0000440002104200C00F4000800F3E00420FED
:103E10003C00060F3B00CB0E3800930E37005C0EC3
:103E20003500270E3400F30D3200C10D3100900D26
:103E30003000600D2E00320D2D00050D2C00D90C28
:103E40002B00AE0C2900850C29005C0C2700350CDA
:103E500027000E0C2600E80B2400C40B2400A00B46
:103E600023007D0B23005A0B2100390B2100180B76
:103E70002000F80A1F00D90A1E00BB0A1E009D0A76
:103E80001D00800A1D00630A1C00470A1B002C0A43
:103E90001B00110A1A00F7091A00DD091900C409EC
:103EA0001900AB091900920917007B091800630972
:103EB00017004C09160036091600200916000A09D9
:103EC0001500F5081500E0081400CC081400B80827
:103ED0001400A4081400900813007D0812006B0859
:103EE0001300580812004608120034081100230875
:103EF00011001208110001081100F0071000E0077E
:103F00001000D0071000C0071000B0070F00A10775
:103F1000100091070E0083070F0074070F0065075C
:103F20000E0057070E0049070E003B070D002E0735
:103F30000E0020070D0013070D0006070D00F906FF
:103F40000C00ED060D00E0060C00D4060C00C806BF
:103F50000C00BC060C00B0060C00A4060B00990671
:103F60000C008D060B0082060B0077060B006C061A
:103F70000B0061060A0057060B004C060A004206B9
:103F80000A0038060A002E060A0024060A001A064D
:103F90000A001006090007060A00FD050900F405DD
:103FA0000900EB050900E2050900D9050900D00563
:103FB0000900C7050900BE050900B5050800AD05E3
:103FC0000800A50509009C050800940508008C055B
:103FD0000800840508007C050800740508006C05CD
:103FE0000700650508005D050700560508004E0539
:103FF00007004705070040050800380507003105A0
:1040000007002A050700230507001C050600160502
:1040100007000F0507000805060002050700FB045E
:104020000600F5040700EE040600E8040600E204BA
:104030000700DB040600D5040600CF040600C9040F
:104040000600C3040600BD040600B7040600B10460
:104050000500AC040600A6040600A00405009B04AD
:10406000060095040500900406008A0405008504F6
:104070000500800406007A0405007504050070043C
:1040800005006B04050066040500610405005C047E
:10409000050057040500520405004D0405004804BE
:1040A0000500430405003E0404003A0405003504FD
:1040B0000500300404002C04050027040400230438
:1040C00005001E0404001A0404001604050011046F
:1040D00004000D04040009040500040404000004A5
:1040E0000400FC030400F8030400F4030400F003DC
:1040F0000400EC030400E8030400E4030400E0030C
:104100000400DC030400D8030400D4030400D0033B
:104110000400CC030400C8030300C503030024F417
:1041200004D9201BC40C5C0E9804C4095F02650707
:104130007101F405F900FB04B30048048700C103D2
:1041400069005803550003034500BE023A0084028B
:10415000310053022A002902250004022000E40154
:104160001C00C8011900AF01170098011400840158
:104170001300710110006101100051010E00430194
:104180000D0036010B002B010B0020010B00150167
:1041900009000C01090003010800FB000800F300FE
:1041A0000800EB000700E4000600DE000600D8006F
:1041B0000600D2000600CC000500C7000500C200C2
:1041C0000500BD000400B9000400B5000400B10002
:1041D0000400AD000400A9000400A5000300A20033
:1041E00003009F0004009B0003009800030095005B
:1041F000020093000300900003008D0002008B007A
:104200000300880002008600020084000300810091
:1042100002007F0002007D0002007B0002007900A6
:1042200002007700010076000200740002007200B4
:104230000100710002006F0002006D0001006C00BF
:1042400002006A00010069000200670001006600C8
:1042500001006500010064000200620001006100CD
:104260000100600001005F0002005D0001005C00D1
:1042700001005B0001005A000100590001005800D4
:1042800001005700010056000100550001005400D4
:1042900001005300000053000100520001005100D2
:1042A0000100500001004F0001004E0000004E00D0
:1042B00001004D0001004C0001004B0000004B00CC
:1042C00001004A00010049000100480000004800C8
:1042D00001004700010046000000460001004500C3
:1042E00000004500010044000100430000004300BD
:1042F00001004200000042000100410000004100B6
:104300000100400001003F0000003F0001003E00AE
:1043100000003E0001003D0000003D0001003C00A7
:1043200000003C0000003C0001003B0000003B009E
:1043300001003A0000003A00010039000000390095
:10434000010038000000380000003800010037008C
:104350000000370001003600000036000000360083
:104360000100350000003500000035000100340078
:10437000000034000000340001003300000033006E
:104380000000330001003200000032000000320063
:104390000100310000003100000031000100300058
:1043A000000030000000300001002F0000002F004E
:1043B00000002F0000002F0001002E0000002E0042
:1043C00000002E0001002D0000002D0000002D0037
:1043D00000002D0001002C0000002C0000002C002B
:1043E00000002C0001002B0000002B0000002B001F
:1043F00000002B0001002A0000002A0000002A0013
:1044000000002A0001002900000029000000290006
:1044100000002900000029000100280000002800F9
:1044200000002800000028000000280001002700EC
:1044300000002700000027000000270000002700E0
:1044400001002600000026000000260000002600D3
:1044500000002600010025000000250000002500C6
:1044600000002500000025000000250001002400B8
:1044700000002400000024000000240000002400AC
:10448000010023000000230000002300000023009F
:104490000000230000002300000023000100220090
:1044A0000000220000002200000022000000220084
:1044B0000000220001002100000021000000210076
:1044C0000000210000002100000021000000210068
:1044D000010020000000200000002000000020005B
:1044E000000020000000200000002000000020004C
:1044F00001001F0000001F0000001F0000001F003F
:1045000000001F0000001F0000001F0001001E002F
:1045100000001E0000001E0000001E000000C2314E
:1045200000001C260000F4190000D80F0000EB0862
:104530000000C00400007502000040010000205A85
:104540003A0020593A0020436F756E7420583A00A3
:10455000C3816779004531004500626564002C2005
:1045600073797374656D2073746F70706564212046
:104570004865617465725F49443A200046C3BC7463
:10458000C3A9732068696261210048656174696E1E
:1045900067206661696C6564004D31313220536873
:1045A0007574646F776E00486962613A204D4158B6
:1045B0002068C3B6666F6B004D415854454D50207E
:1045C00074726967676572656400486962613A2060
:1045D0004D494E2068C3B6666F6B004D494E544539
:1045E0004D50207472696767657265640046C39CAC
:1045F00054C38953204B494D41524144C381530018
:10460000546865726D616C2052756E6177617900D6
:10461000202F002042403A0020403A0020573A0024
:104620002053004D3130362050007C3C3E5E2B3D07
:104630003F2F5B5D3B2C2A225C0043616E6E6F74E2
:10464000206F70656E20737562646972200054C3B8
:10465000A1726F6CC3B32D6BC3A1727479612068B2
:104660006962610053442063617264206F6B0A00C9
:104670006F70656E526F6F74206661696C65640A55
:1046800000766F6C756D652E696E69742066616960
:104690006C65640A004E6F20534420636172640AA3
:1046A000000A4D3234004D3233202573002E0A00AB
:1046B0006F70656E206661696C65642C2046696C5C
:1046C000653A200046696C652073656C65637465A6
:1046D000640A002053697A653A200046696C6520B7
:1046E0006F70656E65643A2000454E442053554214
:1046F000524F5554494E450A002220706F730022D4
:1047000020706172656E743A2200535542524F55C3
:1047100054494E452043414C4C2074617267657486
:104720003A220054C3BA6C666F6C79C3A17300451A
:1047300078636565646564206D61782053554252E5
:104740004F5554494E452064657074683A0057725D
:104750006974696E6720746F2066696C653A200021
:10476000667265736800646F696E67002066696CC5
:10477000653A20004E6F7720002F6175746F2563B6
:104780002E670070012C0190012701B0012201C0A9
:10479000011D01F00118011002130130020E016029
:1047A00002090190020401C002FF000003FA004068
:1047B00003F5008003F000D003EB002004E6007056
:1047C00004E100E004DC004005D700C005D2004051
:1047D00006CD00D006C8008007C3003008BE00F038
:1047E00008B900C009B400B00AAF00B00BAA00D0ED
:1047F0000CA500000EA000500F9B00C010960050AA
:1048000012910000148C00C0158700B0178200B010
:10481000197D00D01B7800001E730040206E0090B0
:10482000226900F024640040275F0090295A00E0CC
:104830002B5500102E500020304B0010324600E067
:1048400033410090353C001037370070383200A0FB
:10485000392D00B03A2800A03B2300603C1E001018
:104860003D1900903D1400103E0F00703E0A00C03C
:104870003E0500003F0000403FFBFF803FF6FFC0C9
:104880003FF1FF2020506C616E6E65724275666666
:10489000657242797465733A20002046726565201E
:1048A0004D656D6F72793A200020436F6D70696CB1
:1048B00065643A204D617920323520323032320A37
:1048C00000204C61737420557064617465643A20F3
:1048D000323032312D31322D3235207C2041757409
:1048E000686F723A202861726B6F6E2C204372657C
:1048F000616C69747920456E6465722D3520506C49
:104900007573290A004D61726C696E20322E302E4B
:10491000392E330A0020536F667477617265205216
:10492000657365740A00205761746368646F67205B
:1049300052657365740A002042726F776E206F753E
:10494000742052657365740A002045787465726E30
:10495000616C2052657365740A00506F77657255FB
:10496000700A0073746172740A0047323858590033
:104970004D31303031006F6B006572726F7220778D
:10498000726974696E6720746F2066696C650A00CD
:10499000446F6E6520736176696E672066696C6529
:1049A0002E0A004D32390056C3A967C3A16C6CC3EF
:1049B000A17300255320256320256320256320252E
:1049C0006300205A3A0020593A0020583A00656E98
:1049D0006473746F7073206869743A200000000A71
:1049E0000B02090C0D0E0807030401000000000073
:1049F00000000000000000000000000000000000B7
:104A00000000000000000000001211100000000073
:104A10000000000000000000000000000000000096
:104A20000000000101FF726573756D6564004469E3
:104A3000736D69737300526573756D696E6700738A
:104A4000686F7700464F4C59544154C381534920F5
:104A50004F504349C3933A0046C3BC74C3A9732E55
:104A60002E2E0000004B61747420612066C3BC745C
:104A7000C3A97368657A000000466F6C797461742D
:104A8000C3A1732E2E2E0000005469737A74C3AD37
:104A900074C3A1732E2E2E000000426574C3B66C41
:104AA00074C3A9732E2E2E000000426568656C79D0
:104AB000657A206D616A64206B6174740000004B3C
:104AC000617474206120666F6C79746174C3A17322
:104AD000686F7A0000004B696164C3A1732E2E2EAB
:104AE0000000004BC3A9726C656B2076C3A1726A8B
:104AF0002E2E2E0000005061726B6F6CC3A1732EBE
:104B00002E2E00000044697361626C6552756E6FF1
:104B100075740050757267654D6F726500506175F0
:104B200073656400656E6400436F6E74696E7565CD
:104B3000004C6F61642046696C616D656E74205431
:104B4000004C6F61642046696C616D656E7400494C
:104B50006E736572742066696C616D656E74206138
:104B60006E642073656E64204D3130380A00220A6D
:104B700000556E6B6E6F776E20636F6D6D616E6446
:104B80003A202200456E6465722D3520506C757395
:104B9000204BC3A9737A2E004E796F6D746174C374
:104BA000A1732E2E2E004E796F6D746174C3A173A4
:104BB00020737AC3BC6E6574656C76650020450011
:104BC000205A0020590020204D39322058005374BB
:104BD0006570732070657220756E697400DB0FC993
:104BE0003F45BCDA3F8FB30240FCF027405694614A
:104BF00040FE4B9B4084A5D840E0231841346A56C0
:104C000041E859974164DBD5416E271742B4B75547
:104C100042CE1A9742C8AED542B5885A43D40684CC
:104C2000BFA65FA7BF7443E0BF10B11AC01C2C58C9
:104C3000C0E8F697C0B849D6C04E4E17C124D35528
:104C4000C1802497C1A0B5D5C1121A17C244AE5570
:104C5000C2781797C26CACD5C267885AC320746FEC
:104C60006F206C6F6E6720657874727573696F6EF4
:104C70002070726576656E7465640A0020636F6CDF
:104C80006420657874727573696F6E2070726576D2
:104C9000656E7465640A006F6B0A00526573656E19
:104CA000643A20006E6F74696669636174696F6E3F
:104CB000200000002200250028002B002E003100DB
:104CC000340002010000050108010B010000210071
:104CD000240027002A002D003000330001010000CD
:104CE000040107010A01050505050705080808086C
:104CF000020202020A0A0808040404040101010174
:104D0000010101010303030303030303040707076E
:104D10000C0C0C0C0C0C0C0C020202020606060613
:104D2000060606060B0B0B0B0B0B0B0B01021020E0
:104D300020080810204010204080020102010804D1
:104D40000201010204081020408080402010080465
:104D500002018004020180402010080402010804BE
:104D60000201010204081020408001020408102002
:104D70004080DF00E70011241FBECFEFD1E2DEBF8D
:104D8000CDBF00E00CBF84B780937C1914BE0FB672
:104D9000F894A895809160008861809360001092DB
:104DA00060000FBE17E0A0E0B2E0E0EDFCE502E03D
:104DB0000BBF02C007900D92A23AB107D9F729E1C3
:104DC000A2EAB7E001C01D92AC37B207E1F716E2E4
:104DD000CAEBD6E200E006C021970109802FFE0150
:104DE0000F94B629C93BD10780E00807A9F70F94B3
:104DF000D2160D94572E0C94000020910808833091
:104E000021F425FD0CC024FD0CC030E0A90102C036
:104E1000559547958A95E2F7CA018170089581E01A
:104E2000089580E008958091280884FD0BC080914A
:104E30002A0887FD07C090912B08937081E019F430
:104E400080E0089581E00895840F911DFC01808128
:104E500090E002C0959587956A95E2F78170089574
:104E6000FC0120812617170611F00CF060830895CD
:104E70004F925F926F927F928F929F92AF92BF926A
:104E8000CF92DF92EF92FF920F931F93CF93DF9316
:104E9000C82F062F542E622EE62EF12C37E0732EEB
:104EA000C82ED12CF701789EE00DF11D1124EE0FD4
:104EB000FF1FEE0FFF1FE65FF64F60817181828159
:104EC00093819B01AC010F94DA2C882309F47AC0FA
:104ED000C50D0C2E000CDD0B060D002E000C110B69
:104EE0007C9EF0017D9EF00D1124E00FF11FEE0F6E
:104EF000FF1FEE0FFF1FE65FF64F80809180A280BC
:104F0000B380A5019401C501B4010F94DA2C81117D
:104F100059C0C50DD11D57FCDA957C9EF0017D9ED0
:104F2000F00D1124060D111D67FC1A95E00FF11FFD
:104F3000EE0FFF1FEE0FFF1FE65FF64F4080518020
:104F400062807380A3019201C301B2010F94DA2C35
:104F5000811138C0A3019201C501B4010F94FC2254
:104F600087FD0CC0A5019401C501B4010F94D72998
:104F7000A30192010F94D6294B015C0187E08C9D1F
:104F8000F0018D9DF00D1124EE0DFF1DEE0FFF1FA2
:104F9000EE0FFF1FE65FF64F80829182A282B382FE
:104FA00081E0DF91CF911F910F91FF90EF90DF9003
:104FB000CF90BF90AF909F908F907F906F905F90B9
:104FC0004F90089580E0EDCF8F929F92AF92BF9265
:104FD000CF92DF92EF92FF920F931F93CF93DF93C5
:104FE0008EE5E82E84E2F82E96E6C92E94E2D92EBC
:104FF000F70185919491FC01A4903296B490319779
:10500000C491329604910496FC0184918823F1F0B6
:1050100088248A94AC1614F488248394002E000CFF
:10502000110B0C2E000CDD0BB016110669F19A2C39
:105030009C161D0649F020E0482D6B2D892D18DFA8
:10504000811102C0980CF4CFB394EECF88248A94D7
:10505000B01614F4882483940C2E000CDD0B002E63
:10506000000C110BAC161D0679F09B2C9016110646
:1050700049F0282D40E0692D8A2DFADE811102C009
:10508000980CF4CFA394EECFF2E0EF0EF11CCE1407
:10509000DF0409F0ADCFDF91CF911F910F91FF9009
:1050A000EF90DF90CF90BF90AF909F908F9008953A
:1050B0004F925F926F927F928F929F92AF92BF9228
:1050C000CF92DF92EF92FF920F931F93CF93DF93D4
:1050D0004090D6075090D7076090D8077090D907B6
:1050E0000AE019E0C7E07801D7E0F70181909190DC
:1050F000A190B1907F01A5019401C501B4010F9465
:10510000DA2C81110FC06701F4E0CF1AD108A50194
:105110009401C301B2010F94D729F6016083718312
:1051200082839383D15009F7C150045E1F4FC11190
:10513000DACFDF91CF911F910F91FF90EF90DF9029
:10514000CF90BF90AF909F908F907F906F905F9027
:105150004F900895089508958F929F92AF92BF92B5
:10516000CF92DF92EF92FF920F931F93CF93DF9333
:10517000EC017B018A016901FB01208131814281BF
:105180005381688179818A819B810F94D7296883B3
:1051900079838A839B83F801208131814281538105
:1051A0006C817D818E819F810F94D7296C837D8353
:1051B0008E839F83F60120813181428153816885EE
:1051C00079858A859B850F94D729688779878A870F
:1051D0009B87F70160817181828193819B01AC0182
:1051E0000F9461239B01AC016C857D858E859F8525
:1051F0000F94D7296C877D878E879F87F801608100
:105200007181828193819B01AC010F9461239B0189
:10521000AC01688979898A899B890F94D729688B21
:10522000798B8A8B9B8BF80120813181428153815C
:10523000F70160817181828193810F9461239B01C9
:10524000AC016C897D898E899F890F94D7296C8BDD
:105250007D8B8E8B9F8BF601208131814281538122
:10526000F70160817181828193810F9461239B0199
:10527000AC01688D798D8A8D9B8D0F94D729688FAD
:10528000798F8A8F9B8FF6012081318142815381F2
:10529000F80160817181828193810F9461239B0168
:1052A000AC016C8D7D8D8E8D9F8D0F94D7296C8F69
:1052B0007D8F8E8F9F8F88A099A0AAA0BBA0F70199
:1052C000C080D180E280F38020E030E0A901C701F6
:1052D000B6010F94FE2B87FF04C0F7FAF094F7F89D
:1052E000F094A7019601B401C5010F94FC2287FD3B
:1052F00002C064017501C8A2D9A2EAA2FBA28CA0D7
:105300009DA0AEA0BFA0F801C080D180E280F38054
:1053100020E030E0A901C701B6010F94FE2B87FF02
:1053200004C0F7FAF094F7F8F094A7019601B401DD
:10533000C5010F94FC2287FD02C064017501CCA257
:10534000DDA2EEA2FFA220E030E040E85FE36CA91E
:105350007DA98EA99FA90F94D7296CAB7DAB8EAB8D
:105360009FABDF91CF911F910F91FF90EF90DF9056
:10537000CF90BF90AF909F908F900895CF92DF9283
:10538000EF92FF92E0916F15F091701520E030E8F8
:1053900048EB53E464817581868197810F94D72906
:1053A0006B017C0120E030E846EB53E40F94FE2BC8
:1053B00018163CF4C12C80E8D82E86EBE82E83E446
:1053C000F82EC701B601FF90EF90DF90CF900895BF
:1053D000CF92DF92EF92FF92E0916F15F0917015EE
:1053E00020E030E040E85FE3648175818681978149
:1053F0000F94D6296B017C0120E030E040EA50E4B4
:105400000F94FC2287FF06C0C12CD12C80EAE82E25
:1054100080E4F82EC701B601FF90EF90DF90CF90A7
:105420000895CF92DF92EF92FF92E0916F15F09185
:10543000701520E030E047EB53E460817181828198
:1054400093810F94D7296B017C0120E030E840EB79
:1054500053E40F94FE2B18163CF4C12C80E8D82E90
:1054600080EBE82E83E4F82EC701B601FF90EF90A1
:10547000DF90CF900895CF92DF92EF92FF92E0916C
:105480006F15F091701520E030E040E051E460814C
:105490007181828193810F94D7296B017C0120E077
:1054A00030E040EA50E40F94FC2287FF06C0C12C94
:1054B000D12C80EAE82E80E4F82EC701B601FF90D7
:1054C000EF90DF90CF9008954F925F926F927F920E
:1054D0008F929F92AF92BF92CF92DF92EF92FF9204
:1054E000CF93DF935C01FB01C080D180E280F38029
:1054F000442309F47EC0C0916F15D09170152C81A2
:105500003D814E815F81C701B6010F94D6292B01E1
:105510003C0127E433E040E85FEB0F94FE2B87FD6E
:1055200066C023E030E848EB53E4C301B2010F94B6
:10553000FC2218160CF45BC0F50180809180A280DB
:10554000B380288139814A815B81C501B4010F9400
:10555000D6292B013C012EE23FEF4FEF50E40F9490
:10556000FE2B87FD44C023E030E047EB53E4C3014A
:10557000B2010F94FC2218160CF439C07CDF27E12D
:1055800037EB41ED58E30F94D6299B01AC01C501DF
:10559000B4010F94FE2B87FD2AC043DF27E137EBD0
:1055A00041ED58E30F94D7299B01AC01C501B4012B
:1055B0000F94FC221816DCF00BDF27E137EB41EDEE
:1055C00058E30F94D629A70196010F94FC221816D0
:1055D00074F0D4DE27E137EB41ED58E30F94D7297F
:1055E000C1E0A70196010F94FE2B87FF86C0C0E0A3
:1055F00084C027E433E040E85FEBC701B6010F94B5
:10560000FE2B87FDF4CF23E030E848EB53E4C701DD
:10561000B6010F94FC22181654F3F5018080918096
:10562000A280B3802EE23FEF4FEF50E4C501B401FA
:105630000F94FE2B87FDDBCF23E030E047EB53E4F4
:10564000C501B4010F94FC2218168CF2C0916F159D
:10565000D0917015288139814A815B81C501B401DF
:105660000F94D7294B015C0106DF27E137EB41EDB1
:1056700058E30F94D6299B01AC01C501B4010F94E6
:10568000FE2B87FDB4CFCDDE27E137EB41ED58E3AC
:105690000F94D7299B01AC01C501B4010F94FC22E2
:1056A00018160CF4A4CF2C813D814E815F81C70177
:1056B000B6010F94D7296B017C018ADE27E137EB15
:1056C00041ED58E30F94D6299B01AC01C701B60107
:1056D0000F94FE2B87FD8BCF51DE27E137EB41ED99
:1056E00058E30F94D7299B01AC01C1E0C701B60173
:1056F0000F94FC2218160CF47ACF8C2FDF91CF91E7
:10570000FF90EF90DF90CF90BF90AF909F908F90E1
:105710007F906F905F904F900895462FBC016C5F13
:105720007F4FD2CE2FEFFC01208321830895CF92AB
:10573000DF92EF92FF92CF93DF93EC01CC80DD807C
:10574000EE80FF8027E433E040E85FEBC701B6015D
:105750000F94FE2B87FD23C023E030E848EB53E491
:10576000C701B6010F94FC221816CCF0C880D9806E
:10577000EA80FB802EE23FEF4FEF50E4C701B60115
:105780000F94FE2B87FD0BC0C1E023E030E047EB18
:1057900053E4C701B6010F94FC2218160CF4C0E0C4
:1057A0008C2FDF91CF91FF90EF90DF90CF900895F5
:1057B000E6EEF1E1808181830895CF92DF92EF924E
:1057C000FF92DC014AE059E097E030E020E0CD9024
:1057D000DD90ED90FC901397F901EE0FFF1FEE0F97
:1057E000FF1FE40FF51FC082D182E282F3822F5F98
:1057F0003F4F2730310559F79150445E5F4F91116B
:10580000E4CFFF90EF90DF90CF9008959091CA077A
:105810008093CA07892F08950F931F93CF938C010C
:1058200020E030E040E751E4FC0160817181828139
:1058300093810F94D6292BEA3AEA4AED51E40F946A
:10584000D72929E83AED45E95CE30F9461230F94E9
:105850001B2BC62F673008F0CFEF20E030E040E789
:1058600051E4F80164817581868197810F94D6296E
:105870002BEA3AEA42EE51E40F94D72920E930E9C5
:1058800040E95CE30F9461230F941B2B962F673044
:1058900008F09FEF8C2FCF911F910F910895809169
:1058A0006A0B882321F08091C00086FFFCCF089509
:1058B000FC0140835183628373830895EF92FF92CA
:1058C0001F93CF93DF939AE0E92E99E0F92E17E02A
:1058D000D0E0C0E0FE01EE0FFF1FEE0FFF1FEE0D48
:1058E000FF1D60817181828193819B01AC010F94C6
:1058F000DA2C811111C02196C730D10559F711500A
:105900008CE1E80EF11C1111E3CF81E0DF91CF9122
:105910001F91FF90EF90089580E0F8CF269A2E9A7D
:105920000895811104C086EF90E20C9431CB8CEF86
:1059300090E2FBCF0F931F93CF93DF9300D01F9282
:10594000CDB7DEB79C0101EF1BE090E1EFE5F2E09F
:10595000D80101900D929A95E1F7F90120813181EA
:1059600042815381F80160857185828593850F940A
:10597000D729F801608771878287938780E090E05C
:10598000A0EAB0E489839A83AB83BC83CE010196FD
:105990000E94B0AE0F900F900F900F90DF91CF91BB
:1059A0001F910F9108958F929F92AF92BF92CF92C5
:1059B000DF92EF92FF921F93CF93DF9300D000D03E
:1059C0001F921F92CDB7DEB79091F00B981709F494
:1059D00070C0182F4091D00B5091D10B6091D20B19
:1059E0007091D30B80E1EFE5F2E0A1EFBBE0019015
:1059F0000D928A95E1F78091C8119091C911A091FB
:105A0000CA11B091CB118D839E83AF83B8871123C8
:105A100009F461C040930509509306096093070992
:105A2000709308098091D40B9091D50BA091D60B5F
:105A3000B091D70B89839A83AB83BC83CE01019647
:105A40000E94B0AEC0900109D0900209E090030915
:105A5000F090040920E030E0A901C701B6010F94DD
:105A6000FC22811124C08090D80B9090D90BA0907B
:105A7000DA0BB090DB0B2AE037ED43E25CE3C501C3
:105A8000B4010F94FE2B181694F4A5019401C701DC
:105A9000B6010F94D729609301097093020980938E
:105AA000030990930409CE0105960E94B0AE1093AD
:105AB000F00B28960FB6F894DEBF0FBECDBFDF9176
:105AC000CF911F91FF90EF90DF90CF90BF90AF905C
:105AD0009F908F90089520E030E0A9016091010926
